{
  "abi": [
    {
      "inputs": [
        {
          "internalType": "address",
          "name": "tokenAddress",
          "type": "address"
        }
      ],
      "stateMutability": "nonpayable",
      "type": "constructor"
    },
    {
      "inputs": [],
      "name": "DefiCtfToken",
      "outputs": [
        {
          "internalType": "contract IERC20",
          "name": "",
          "type": "address"
        }
      ],
      "stateMutability": "view",
      "type": "function"
    },
    {
      "inputs": [
        {
          "internalType": "uint256",
          "name": "amount",
          "type": "uint256"
        }
      ],
      "name": "depositTokens",
      "outputs": [],
      "stateMutability": "nonpayable",
      "type": "function"
    },
    {
      "inputs": [
        {
          "internalType": "uint256",
          "name": "borrowAmount",
          "type": "uint256"
        }
      ],
      "name": "flashLoan",
      "outputs": [],
      "stateMutability": "nonpayable",
      "type": "function"
    },
    {
      "inputs": [],
      "name": "poolBalance",
      "outputs": [
        {
          "internalType": "uint256",
          "name": "",
          "type": "uint256"
        }
      ],
      "stateMutability": "view",
      "type": "function"
    }
  ],
  "bytecode": {
    "object": "0x60a060405234801561001057600080fd5b5060405161075a38038061075a83398101604081905261002f9161009f565b60016000556001600160a01b03811661008e5760405162461bcd60e51b815260206004820152601c60248201527f546f6b656e20616464726573732063616e6e6f74206265207a65726f00000000604482015260640160405180910390fd5b6001600160a01b03166080526100cf565b6000602082840312156100b157600080fd5b81516001600160a01b03811681146100c857600080fd5b9392505050565b60805161064e61010c600039600081816087015281816101490152818161023b015281816102c8015281816103480152610497015261064e6000f3fe608060405234801561001057600080fd5b506004361061004c5760003560e01c806396365d44146100515780639ab603b91461006d578063abacf90214610082578063dd49756e146100c1575b600080fd5b61005a60015481565b6040519081526020015b60405180910390f35b61008061007b366004610581565b6100d4565b005b6100a97f000000000000000000000000000000000000000000000000000000000000000081565b6040516001600160a01b039091168152602001610064565b6100806100cf366004610581565b61041d565b6100dc610528565b600081116101315760405162461bcd60e51b815260206004820152601e60248201527f4d75737420626f72726f77206174206c65617374206f6e6520746f6b656e000060448201526064015b60405180910390fd5b6040516370a0823160e01b81523060048201526000907f00000000000000000000000000000000000000000000000000000000000000006001600160a01b0316906370a0823190602401602060405180830381865afa158015610198573d6000803e3d6000fd5b505050506040513d601f19601f820116820180604052508101906101bc919061059a565b90508181101561020e5760405162461bcd60e51b815260206004820152601960248201527f4e6f7420656e6f75676820746f6b656e7320696e20706f6f6c000000000000006044820152606401610128565b806001541461021f5761021f6105b3565b60405163a9059cbb60e01b8152336004820152602481018390527f00000000000000000000000000000000000000000000000000000000000000006001600160a01b03169063a9059cbb906044016020604051808303816000875af115801561028c573d6000803e3d6000fd5b505050506040513d601f19601f820116820180604052508101906102b091906105c9565b50604051630357291360e41b81526001600160a01b037f0000000000000000000000000000000000000000000000000000000000000000166004820152602481018390523390633572913090604401600060405180830381600087803b15801561031957600080fd5b505af115801561032d573d6000803e3d6000fd5b50506040516370a0823160e01b8152306004820152600092507f00000000000000000000000000000000000000000000000000000000000000006001600160a01b031691506370a0823190602401602060405180830381865afa158015610398573d6000803e3d6000fd5b505050506040513d601f19601f820116820180604052508101906103bc919061059a565b90508181101561040e5760405162461bcd60e51b815260206004820181905260248201527f466c617368206c6f616e206861736e2774206265656e2070616964206261636b6044820152606401610128565b505061041a6001600055565b50565b610425610528565b600081116104755760405162461bcd60e51b815260206004820152601f60248201527f4d757374206465706f736974206174206c65617374206f6e6520746f6b656e006044820152606401610128565b6040516323b872dd60e01b8152336004820152306024820152604481018290527f00000000000000000000000000000000000000000000000000000000000000006001600160a01b0316906323b872dd906064016020604051808303816000875af11580156104e8573d6000803e3d6000fd5b505050506040513d601f19601f8201168201806040525081019061050c91906105c9565b508060015461051b91906105f2565b60015561041a6001600055565b60026000540361057a5760405162461bcd60e51b815260206004820152601f60248201527f5265656e7472616e637947756172643a207265656e7472616e742063616c6c006044820152606401610128565b6002600055565b60006020828403121561059357600080fd5b5035919050565b6000602082840312156105ac57600080fd5b5051919050565b634e487b7160e01b600052600160045260246000fd5b6000602082840312156105db57600080fd5b815180151581146105eb57600080fd5b9392505050565b6000821982111561061357634e487b7160e01b600052601160045260246000fd5b50019056fea2646970667358221220b2a013d3a324f3dfbae6d59102e75898574ed0557877335d753a85ea764a472b64736f6c634300080f0033",
    "linkReferences": {}
  },
  "methodIdentifiers": {
    "DefiCtfToken()": "abacf902",
    "depositTokens(uint256)": "dd49756e",
    "flashLoan(uint256)": "9ab603b9",
    "poolBalance()": "96365d44"
  },
  "id": 82
}