{
  "abi": [
    {
      "inputs": [
        {
          "internalType": "address",
          "name": "tokenAddress",
          "type": "address"
        },
        {
          "internalType": "address",
          "name": "governanceAddress",
          "type": "address"
        }
      ],
      "stateMutability": "nonpayable",
      "type": "constructor"
    },
    {
      "anonymous": false,
      "inputs": [
        {
          "indexed": true,
          "internalType": "address",
          "name": "receiver",
          "type": "address"
        },
        {
          "indexed": false,
          "internalType": "uint256",
          "name": "amount",
          "type": "uint256"
        }
      ],
      "name": "FundsDrained",
      "type": "event"
    },
    {
      "inputs": [
        {
          "internalType": "address",
          "name": "receiver",
          "type": "address"
        }
      ],
      "name": "drainAllFunds",
      "outputs": [],
      "stateMutability": "nonpayable",
      "type": "function"
    },
    {
      "inputs": [
        {
          "internalType": "uint256",
          "name": "borrowAmount",
          "type": "uint256"
        }
      ],
      "name": "flashLoan",
      "outputs": [],
      "stateMutability": "nonpayable",
      "type": "function"
    },
    {
      "inputs": [],
      "name": "governance",
      "outputs": [
        {
          "internalType": "contract SimpleGovernance",
          "name": "",
          "type": "address"
        }
      ],
      "stateMutability": "view",
      "type": "function"
    },
    {
      "inputs": [],
      "name": "token",
      "outputs": [
        {
          "internalType": "contract ERC20Snapshot",
          "name": "",
          "type": "address"
        }
      ],
      "stateMutability": "view",
      "type": "function"
    }
  ],
  "bytecode": {
    "object": "0x608060405234801561001057600080fd5b5060405161092638038061092683398101604081905261002f91610081565b6001600081905580546001600160a01b039384166001600160a01b031991821617909155600280549290931691161790556100b4565b80516001600160a01b038116811461007c57600080fd5b919050565b6000806040838503121561009457600080fd5b61009d83610065565b91506100ab60208401610065565b90509250929050565b610863806100c36000396000f3fe608060405234801561001057600080fd5b506004361061004c5760003560e01c80630cf20913146100515780635aa6e675146100665780639ab603b914610095578063fc0c546a146100a8575b600080fd5b61006461005f366004610731565b6100bb565b005b600254610079906001600160a01b031681565b6040516001600160a01b03909116815260200160405180910390f35b6100646100a336600461075a565b610258565b600154610079906001600160a01b031681565b6002546001600160a01b0316331461012a5760405162461bcd60e51b815260206004820152602760248201527f4f6e6c7920676f7665726e616e63652063616e206578656375746520746869736044820152661030b1ba34b7b760c91b60648201526084015b60405180910390fd5b6001546040516370a0823160e01b81523060048201526000916001600160a01b0316906370a0823190602401602060405180830381865afa158015610173573d6000803e3d6000fd5b505050506040513d601f19601f820116820180604052508101906101979190610773565b60015460405163a9059cbb60e01b81526001600160a01b0385811660048301526024820184905292935091169063a9059cbb906044016020604051808303816000875af11580156101ec573d6000803e3d6000fd5b505050506040513d601f19601f82011682018060405250810190610210919061078c565b50816001600160a01b03167f01299bd5af84e23c4c82c1d4eddf2a9c00e70b8b886076d06cdbe7c6fc80a87d8260405161024c91815260200190565b60405180910390a25050565b610260610512565b6001546040516370a0823160e01b81523060048201526000916001600160a01b0316906370a0823190602401602060405180830381865afa1580156102a9573d6000803e3d6000fd5b505050506040513d601f19601f820116820180604052508101906102cd9190610773565b90508181101561031f5760405162461bcd60e51b815260206004820152601960248201527f4e6f7420656e6f75676820746f6b656e7320696e20706f6f6c000000000000006044820152606401610121565b60015460405163a9059cbb60e01b8152336004820152602481018490526001600160a01b039091169063a9059cbb906044016020604051808303816000875af1158015610370573d6000803e3d6000fd5b505050506040513d601f19601f82011682018060405250810190610394919061078c565b50333b6103ee5760405162461bcd60e51b815260206004820152602260248201527f53656e646572206d7573742062652061206465706c6f79656420636f6e74726160448201526118dd60f21b6064820152608401610121565b6001546040516001600160a01b039091166024820152604481018390526104439060640160408051601f198184030181529190526020810180516001600160e01b0316630357291360e41b179052339061056b565b506001546040516370a0823160e01b81523060048201526000916001600160a01b0316906370a0823190602401602060405180830381865afa15801561048d573d6000803e3d6000fd5b505050506040513d601f19601f820116820180604052508101906104b19190610773565b9050818110156105035760405162461bcd60e51b815260206004820181905260248201527f466c617368206c6f616e206861736e2774206265656e2070616964206261636b6044820152606401610121565b505061050f6001600055565b50565b6002600054036105645760405162461bcd60e51b815260206004820152601f60248201527f5265656e7472616e637947756172643a207265656e7472616e742063616c6c006044820152606401610121565b6002600055565b60606105af838360006040518060400160405280601e81526020017f416464726573733a206c6f772d6c6576656c2063616c6c206661696c656400008152506105b6565b9392505050565b6060824710156106175760405162461bcd60e51b815260206004820152602660248201527f416464726573733a20696e73756666696369656e742062616c616e636520666f6044820152651c8818d85b1b60d21b6064820152608401610121565b600080866001600160a01b0316858760405161063391906107de565b60006040518083038185875af1925050503d8060008114610670576040519150601f19603f3d011682016040523d82523d6000602084013e610675565b606091505b509150915061068687838387610693565b925050505b949350505050565b606083156107025782516000036106fb576001600160a01b0385163b6106fb5760405162461bcd60e51b815260206004820152601d60248201527f416464726573733a2063616c6c20746f206e6f6e2d636f6e74726163740000006044820152606401610121565b508161068b565b61068b83838151156107175781518083602001fd5b8060405162461bcd60e51b815260040161012191906107fa565b60006020828403121561074357600080fd5b81356001600160a01b03811681146105af57600080fd5b60006020828403121561076c57600080fd5b5035919050565b60006020828403121561078557600080fd5b5051919050565b60006020828403121561079e57600080fd5b815180151581146105af57600080fd5b60005b838110156107c95781810151838201526020016107b1565b838111156107d8576000848401525b50505050565b600082516107f08184602087016107ae565b9190910192915050565b60208152600082518060208401526108198160408501602087016107ae565b601f01601f1916919091016040019291505056fea26469706673582212204a95bfab85f6fd7298f329a251d43d698661bb77729b6cc5f7eaa4e111a44ca664736f6c634300080f0033",
    "linkReferences": {}
  },
  "methodIdentifiers": {
    "drainAllFunds(address)": "0cf20913",
    "flashLoan(uint256)": "9ab603b9",
    "governance()": "5aa6e675",
    "token()": "fc0c546a"
  },
  "id": 85
}