{
  "abi": [
    {
      "inputs": [],
      "name": "deposit",
      "outputs": [],
      "stateMutability": "payable",
      "type": "function"
    },
    {
      "inputs": [
        {
          "internalType": "uint256",
          "name": "amount",
          "type": "uint256"
        }
      ],
      "name": "flashLoan",
      "outputs": [],
      "stateMutability": "nonpayable",
      "type": "function"
    },
    {
      "inputs": [],
      "name": "withdraw",
      "outputs": [],
      "stateMutability": "nonpayable",
      "type": "function"
    }
  ],
  "bytecode": {
    "object": "0x608060405234801561001057600080fd5b506103bb806100206000396000f3fe6080604052600436106100345760003560e01c80633ccfd60b146100395780639ab603b914610050578063d0e30db014610070575b600080fd5b34801561004557600080fd5b5061004e610078565b005b34801561005c57600080fd5b5061004e61006b366004610346565b61009a565b61004e6101a1565b33600081815260208190526040812080549190559061009790826101c7565b50565b476100a4816102e5565b818110156100f95760405162461bcd60e51b815260206004820152601960248201527f4e6f7420656e6f7567682045544820696e2062616c616e63650000000000000060448201526064015b60405180910390fd5b336001600160a01b03166361461954836040518263ffffffff1660e01b81526004016000604051808303818588803b15801561013457600080fd5b505af1158015610148573d6000803e3d6000fd5b50505050508047101561019d5760405162461bcd60e51b815260206004820181905260248201527f466c617368206c6f616e206861736e2774206265656e2070616964206261636b60448201526064016100f0565b5050565b33600090815260208190526040812080543492906101c090849061035f565b9091555050565b804710156102175760405162461bcd60e51b815260206004820152601d60248201527f416464726573733a20696e73756666696369656e742062616c616e636500000060448201526064016100f0565b6000826001600160a01b03168260405160006040518083038185875af1925050503d8060008114610264576040519150601f19603f3d011682016040523d82523d6000602084013e610269565b606091505b50509050806102e05760405162461bcd60e51b815260206004820152603a60248201527f416464726573733a20756e61626c6520746f2073656e642076616c75652c207260448201527f6563697069656e74206d6179206861766520726576657274656400000000000060648201526084016100f0565b505050565b610097816040516024016102fb91815260200190565b60408051601f198184030181529190526020810180516001600160e01b031663f5b1bba960e01b17905280516a636f6e736f6c652e6c6f67602083016000808483855afa5050505050565b60006020828403121561035857600080fd5b5035919050565b6000821982111561038057634e487b7160e01b600052601160045260246000fd5b50019056fea26469706673582212205c31f317324fb489e89ec88fabf5875cbf00eebfe8715657b076c8c9c67a38dd64736f6c634300080f0033",
    "linkReferences": {}
  },
  "methodIdentifiers": {
    "deposit()": "d0e30db0",
    "flashLoan(uint256)": "9ab603b9",
    "withdraw()": "3ccfd60b"
  },
  "id": 15
}