{
  "abi": [
    {
      "inputs": [],
      "name": "deposit",
      "outputs": [],
      "stateMutability": "payable",
      "type": "function"
    },
    {
      "inputs": [
        {
          "internalType": "uint256",
          "name": "amount",
          "type": "uint256"
        }
      ],
      "name": "flashLoan",
      "outputs": [],
      "stateMutability": "nonpayable",
      "type": "function"
    },
    {
      "inputs": [],
      "name": "withdraw",
      "outputs": [],
      "stateMutability": "nonpayable",
      "type": "function"
    }
  ],
  "bytecode": {
    "object": "0x608060405234801561001057600080fd5b50610351806100206000396000f3fe6080604052600436106100345760003560e01c80633ccfd60b146100395780639ab603b914610050578063d0e30db014610070575b600080fd5b34801561004557600080fd5b5061004e610078565b005b34801561005c57600080fd5b5061004e61006b3660046102dc565b61009a565b61004e610198565b33600081815260208190526040812080549190559061009790826101be565b50565b47818110156100f05760405162461bcd60e51b815260206004820152601960248201527f4e6f7420656e6f7567682045544820696e2062616c616e63650000000000000060448201526064015b60405180910390fd5b336001600160a01b03166361461954836040518263ffffffff1660e01b81526004016000604051808303818588803b15801561012b57600080fd5b505af115801561013f573d6000803e3d6000fd5b5050505050804710156101945760405162461bcd60e51b815260206004820181905260248201527f466c617368206c6f616e206861736e2774206265656e2070616964206261636b60448201526064016100e7565b5050565b33600090815260208190526040812080543492906101b79084906102f5565b9091555050565b8047101561020e5760405162461bcd60e51b815260206004820152601d60248201527f416464726573733a20696e73756666696369656e742062616c616e636500000060448201526064016100e7565b6000826001600160a01b03168260405160006040518083038185875af1925050503d806000811461025b576040519150601f19603f3d011682016040523d82523d6000602084013e610260565b606091505b50509050806102d75760405162461bcd60e51b815260206004820152603a60248201527f416464726573733a20756e61626c6520746f2073656e642076616c75652c207260448201527f6563697069656e74206d6179206861766520726576657274656400000000000060648201526084016100e7565b505050565b6000602082840312156102ee57600080fd5b5035919050565b6000821982111561031657634e487b7160e01b600052601160045260246000fd5b50019056fea2646970667358221220fa69e06c539789490ea42e5aceafb4ba78f29b14c3e9704ade59a3074d30f16564736f6c634300080f0033",
    "linkReferences": {}
  },
  "methodIdentifiers": {
    "deposit()": "d0e30db0",
    "flashLoan(uint256)": "9ab603b9",
    "withdraw()": "3ccfd60b"
  },
  "id": 21
}