{
  "abi": [
    {
      "inputs": [
        {
          "internalType": "address",
          "name": "",
          "type": "address"
        }
      ],
      "name": "credit",
      "outputs": [
        {
          "internalType": "uint256",
          "name": "",
          "type": "uint256"
        }
      ],
      "stateMutability": "view",
      "type": "function"
    },
    {
      "inputs": [
        {
          "internalType": "address",
          "name": "to",
          "type": "address"
        }
      ],
      "name": "deposit",
      "outputs": [],
      "stateMutability": "payable",
      "type": "function"
    },
    {
      "inputs": [
        {
          "internalType": "address",
          "name": "to",
          "type": "address"
        }
      ],
      "name": "queryCredit",
      "outputs": [
        {
          "internalType": "uint256",
          "name": "",
          "type": "uint256"
        }
      ],
      "stateMutability": "view",
      "type": "function"
    },
    {
      "inputs": [
        {
          "internalType": "uint256",
          "name": "amount",
          "type": "uint256"
        }
      ],
      "name": "withdraw",
      "outputs": [],
      "stateMutability": "nonpayable",
      "type": "function"
    }
  ],
  "bytecode": {
    "object": "0x608060405234801561001057600080fd5b50610216806100206000396000f3fe60806040526004361061003f5760003560e01c80632e1a7d4d1461004457806359f1286d14610070578063d5d44d80146100b5578063f340fa01146100e8575b600080fd5b34801561005057600080fd5b5061006e6004803603602081101561006757600080fd5b503561010e565b005b34801561007c57600080fd5b506100a36004803603602081101561009357600080fd5b50356001600160a01b0316610194565b60408051918252519081900360200190f35b3480156100c157600080fd5b506100a3600480360360208110156100d857600080fd5b50356001600160a01b03166101af565b61006e600480360360208110156100fe57600080fd5b50356001600160a01b03166101c1565b33600090815260208190526040902054811161019157604051600090339083908381818185875af1925050503d8060008114610166576040519150601f19603f3d011682016040523d82523d6000602084013e61016b565b606091505b505090508061017957600080fd5b50336000908152602081905260409020805482900390555b50565b6001600160a01b031660009081526020819052604090205490565b60006020819052908152604090205481565b6001600160a01b0316600090815260208190526040902080543401905556fea264697066735822122054dd6ddbfc47b727dc6d02e182faf3cdc03db3a2dfd31da51cb51fe137edec4364736f6c63430006000033",
    "linkReferences": {}
  },
  "methodIdentifiers": {
    "credit(address)": "d5d44d80",
    "deposit(address)": "f340fa01",
    "queryCredit(address)": "59f1286d",
    "withdraw(uint256)": "2e1a7d4d"
  },
  "id": 0
}