{
  "abi": [
    {
      "inputs": [
        {
          "internalType": "uint256",
          "name": "",
          "type": "uint256"
        }
      ],
      "name": "games",
      "outputs": [
        {
          "internalType": "address",
          "name": "player",
          "type": "address"
        },
        {
          "internalType": "uint256",
          "name": "id",
          "type": "uint256"
        },
        {
          "internalType": "uint256",
          "name": "bet",
          "type": "uint256"
        },
        {
          "internalType": "uint256",
          "name": "blockNumber",
          "type": "uint256"
        }
      ],
      "stateMutability": "view",
      "type": "function"
    },
    {
      "inputs": [
        {
          "internalType": "uint256",
          "name": "_bet",
          "type": "uint256"
        }
      ],
      "name": "spin",
      "outputs": [],
      "stateMutability": "payable",
      "type": "function"
    },
    {
      "stateMutability": "payable",
      "type": "receive"
    }
  ],
  "bytecode": {
    "object": "0x608060405234801561001057600080fd5b5061033e806100206000396000f3fe60806040526004361061002d5760003560e01c8063117a5b9014610039578063a5b6ea8f1461008757600080fd5b3661003457005b600080fd5b34801561004557600080fd5b50610059610054366004610296565b61009c565b604080516001600160a01b039095168552602085019390935291830152606082015260800160405180910390f35b61009a610095366004610296565b6100e0565b005b600081815481106100ac57600080fd5b600091825260209091206004909102018054600182015460028301546003909301546001600160a01b039092169350919084565b662386f26fc100003410156100f457600080fd5b600080546040805160808101825233815260208101839052908101849052909190606081016101246001436102af565b90528154600180820184556000938452602093849020835160049093020180546001600160a01b0319166001600160a01b039093169290921782559282015192810192909255604081015160028301556060015160039091015580156102505760006101916001836102af565b905060006101c5600083815481106101ab576101ab6102d0565b906000526020600020906004020160030154406064610254565b9050600082815481106101da576101da6102d0565b906000526020600020906004020160020154810361024d5760008281548110610205576102056102d0565b600091825260208220600490910201546040516001600160a01b03909116914780156108fc02929091818181858888f1935050505015801561024b573d6000803e3d6000fd5b505b50505b5050565b6000818360405160200161026a91815260200190565b6040516020818303038152906040528051906020012060001c61028d91906102e6565b90505b92915050565b6000602082840312156102a857600080fd5b5035919050565b8181038181111561029057634e487b7160e01b600052601160045260246000fd5b634e487b7160e01b600052603260045260246000fd5b60008261030357634e487b7160e01b600052601260045260246000fd5b50069056fea26469706673582212202dc5202838ce62d28905cd8f353f983382292a6d50fc9d7a347322815712b8ea64736f6c63430008110033",
    "linkReferences": {}
  },
  "methodIdentifiers": {
    "games(uint256)": "117a5b90",
    "spin(uint256)": "a5b6ea8f"
  },
  "id": 14
}