{
  "abi": [
    {
      "stateMutability": "payable",
      "type": "fallback"
    },
    {
      "inputs": [
        {
          "internalType": "address",
          "name": "_honeypot",
          "type": "address"
        }
      ],
      "name": "attack",
      "outputs": [],
      "stateMutability": "payable",
      "type": "function"
    },
    {
      "inputs": [],
      "name": "getBalance",
      "outputs": [
        {
          "internalType": "uint256",
          "name": "",
          "type": "uint256"
        }
      ],
      "stateMutability": "view",
      "type": "function"
    },
    {
      "stateMutability": "payable",
      "type": "receive"
    }
  ],
  "bytecode": {
    "object": "0x608060405234801561001057600080fd5b50610112806100206000396000f3fe60806040526004361060275760003560e01c806312065fe014602f578063d018db3e14604e57005b36602d57005b005b348015603a57600080fd5b504760405190815260200160405180910390f35b602d605936600460ae565b806001600160a01b0316633ccfd60b346040518263ffffffff1660e01b81526004016000604051808303818588803b158015609357600080fd5b505af115801560a6573d6000803e3d6000fd5b505050505050565b60006020828403121560bf57600080fd5b81356001600160a01b038116811460d557600080fd5b939250505056fea264697066735822122081aa107c0579fb5a30cf130b96506e210bd27896460e6ca685417e67930a082b64736f6c63430008110033",
    "linkReferences": {}
  },
  "methodIdentifiers": {
    "attack(address)": "d018db3e",
    "getBalance()": "12065fe0"
  },
  "id": 15
}