{
  "abi": [
    {
      "inputs": [
        {
          "internalType": "address",
          "name": "tokenAddress",
          "type": "address"
        },
        {
          "internalType": "address",
          "name": "uniswapPairAddress",
          "type": "address"
        }
      ],
      "stateMutability": "nonpayable",
      "type": "constructor"
    },
    {
      "anonymous": false,
      "inputs": [
        {
          "indexed": true,
          "internalType": "address",
          "name": "account",
          "type": "address"
        },
        {
          "indexed": false,
          "internalType": "uint256",
          "name": "depositRequired",
          "type": "uint256"
        },
        {
          "indexed": false,
          "internalType": "uint256",
          "name": "borrowAmount",
          "type": "uint256"
        }
      ],
      "name": "Borrowed",
      "type": "event"
    },
    {
      "inputs": [
        {
          "internalType": "uint256",
          "name": "borrowAmount",
          "type": "uint256"
        }
      ],
      "name": "borrow",
      "outputs": [],
      "stateMutability": "payable",
      "type": "function"
    },
    {
      "inputs": [
        {
          "internalType": "uint256",
          "name": "amount",
          "type": "uint256"
        }
      ],
      "name": "calculateDepositRequired",
      "outputs": [
        {
          "internalType": "uint256",
          "name": "",
          "type": "uint256"
        }
      ],
      "stateMutability": "view",
      "type": "function"
    },
    {
      "inputs": [
        {
          "internalType": "address",
          "name": "",
          "type": "address"
        }
      ],
      "name": "deposits",
      "outputs": [
        {
          "internalType": "uint256",
          "name": "",
          "type": "uint256"
        }
      ],
      "stateMutability": "view",
      "type": "function"
    },
    {
      "inputs": [],
      "name": "token",
      "outputs": [
        {
          "internalType": "contract DefiCtfToken",
          "name": "",
          "type": "address"
        }
      ],
      "stateMutability": "view",
      "type": "function"
    },
    {
      "inputs": [],
      "name": "uniswapPair",
      "outputs": [
        {
          "internalType": "address",
          "name": "",
          "type": "address"
        }
      ],
      "stateMutability": "view",
      "type": "function"
    }
  ],
  "bytecode": {
    "object": "0x60c060405234801561001057600080fd5b506040516107d53803806107d583398101604081905261002f91610067565b60016000556001600160a01b0391821660a0521660805261009a565b80516001600160a01b038116811461006257600080fd5b919050565b6000806040838503121561007a57600080fd5b6100838361004b565b91506100916020840161004b565b90509250929050565b60805160a0516106fc6100d96000396000818160f501528181610257015261038d01526000818160a901528181610362015261040701526106fc6000f3fe60806040526004361061004a5760003560e01c8063bc554c281461004f578063c5ebeaec14610082578063c816841b14610097578063fc0c546a146100e3578063fc7e286d14610117575b600080fd5b34801561005b57600080fd5b5061006f61006a3660046105bc565b610144565b6040519081526020015b60405180910390f35b6100956100903660046105bc565b61017c565b005b3480156100a357600080fd5b506100cb7f000000000000000000000000000000000000000000000000000000000000000081565b6040516001600160a01b039091168152602001610079565b3480156100ef57600080fd5b506100cb7f000000000000000000000000000000000000000000000000000000000000000081565b34801561012357600080fd5b5061006f6101323660046105d5565b60016020526000908152604090205481565b6000670de0b6b3a764000061015761034b565b610161908461061b565b61016c90600261061b565b610176919061063a565b92915050565b610184610445565b600061018f82610144565b9050803410156101e65760405162461bcd60e51b815260206004820181905260248201527f4e6f74206465706f736974696e6720656e6f75676820636f6c6c61746572616c60448201526064015b60405180910390fd5b80341115610202576102026101fb823461065c565b339061049e565b3360009081526001602052604090205461021d908290610673565b336000818152600160205260409081902092909255905163a9059cbb60e01b81526004810191909152602481018390526001600160a01b037f0000000000000000000000000000000000000000000000000000000000000000169063a9059cbb906044016020604051808303816000875af11580156102a0573d6000803e3d6000fd5b505050506040513d601f19601f820116820180604052508101906102c4919061068b565b6103025760405162461bcd60e51b815260206004820152600f60248201526e151c985b9cd9995c8819985a5b1959608a1b60448201526064016101dd565b604080518281526020810184905233917feae9cfbc77fdd40ca899f36b608256063b2bc9d8178b0220f7ad513e178d6730910160405180910390a2506103486001600055565b50565b6040516370a0823160e01b81526001600160a01b037f0000000000000000000000000000000000000000000000000000000000000000811660048301526000917f0000000000000000000000000000000000000000000000000000000000000000909116906370a0823190602401602060405180830381865afa1580156103d6573d6000803e3d6000fd5b505050506040513d601f19601f820116820180604052508101906103fa91906106ad565b6104366001600160a01b037f00000000000000000000000000000000000000000000000000000000000000001631670de0b6b3a764000061061b565b610440919061063a565b905090565b6002600054036104975760405162461bcd60e51b815260206004820152601f60248201527f5265656e7472616e637947756172643a207265656e7472616e742063616c6c0060448201526064016101dd565b6002600055565b804710156104ee5760405162461bcd60e51b815260206004820152601d60248201527f416464726573733a20696e73756666696369656e742062616c616e636500000060448201526064016101dd565b6000826001600160a01b03168260405160006040518083038185875af1925050503d806000811461053b576040519150601f19603f3d011682016040523d82523d6000602084013e610540565b606091505b50509050806105b75760405162461bcd60e51b815260206004820152603a60248201527f416464726573733a20756e61626c6520746f2073656e642076616c75652c207260448201527f6563697069656e74206d6179206861766520726576657274656400000000000060648201526084016101dd565b505050565b6000602082840312156105ce57600080fd5b5035919050565b6000602082840312156105e757600080fd5b81356001600160a01b03811681146105fe57600080fd5b9392505050565b634e487b7160e01b600052601160045260246000fd5b600081600019048311821515161561063557610635610605565b500290565b60008261065757634e487b7160e01b600052601260045260246000fd5b500490565b60008282101561066e5761066e610605565b500390565b6000821982111561068657610686610605565b500190565b60006020828403121561069d57600080fd5b815180151581146105fe57600080fd5b6000602082840312156106bf57600080fd5b505191905056fea26469706673582212203a85aaa2f8f9a3964f67c36138d2445469f461a14166b94d2567c68b8cd08dfc64736f6c634300080f0033",
    "linkReferences": {}
  },
  "methodIdentifiers": {
    "borrow(uint256)": "c5ebeaec",
    "calculateDepositRequired(uint256)": "bc554c28",
    "deposits(address)": "fc7e286d",
    "token()": "fc0c546a",
    "uniswapPair()": "c816841b"
  },
  "id": 87
}