{
  "abi": [
    {
      "inputs": [],
      "stateMutability": "payable",
      "type": "constructor"
    },
    {
      "inputs": [],
      "name": "breakIt",
      "outputs": [],
      "stateMutability": "payable",
      "type": "function"
    }
  ],
  "bytecode": {
    "object": "0x60806040523461000e57600080fd5b6101548061001d6000396000f3fe60806040526004361061001e5760003560e01c80636a1f9e1914610023575b600080fd5b61002b61002d565b005b3461006d576040805162461bcd60e51b815260206004820152600b60248201526a73656e642066756e64732160a81b604482015290519081900360640190fd5b610075610108565b3461008c018082526100899063ffffffff16565b50565b610094610096565b565b34156100dc576040805162461bcd60e51b815260206004820152601060248201526f646f6e742073656e642066756e64732160801b604482015290519081900360640190fd5b60405133904780156108fc02916000818181858888f19350505050158015610089573d6000803e3d6000fd5b604051806020016040528061011c81525090565bfefea264697066735822122061e7cc4596f7bdb7560318f141c6125622a873395245f9a7d54ce93c686a16bf64736f6c634300060c0033",
    "linkReferences": {}
  },
  "methodIdentifiers": {
    "breakIt()": "6a1f9e19"
  },
  "id": 0
}