{
  "abi": [
    {
      "inputs": [],
      "name": "hereIsMyNumber",
      "outputs": [],
      "stateMutability": "nonpayable",
      "type": "function"
    },
    {
      "stateMutability": "payable",
      "type": "receive"
    }
  ],
  "bytecode": {
    "object": "0x608060405234801561001057600080fd5b5060c48061001f6000396000f3fe60806040526004361060205760003560e01c806352e4db1414602b57600080fd5b36602657005b600080fd5b348015603657600080fd5b50603d603f565b005b33803b9063ffffffff821615605357600080fd5b333203605e57600080fd5b60405133904780156108fc02916000818181858888f193505050501580156089573d6000803e3d6000fd5b50505056fea2646970667358221220f0579e4d84ea3f5825dc88943f431b1e5727d340054f7b6eee9896282cc46e7c64736f6c63430008110033",
    "linkReferences": {}
  },
  "methodIdentifiers": {
    "hereIsMyNumber()": "52e4db14"
  },
  "id": 9
}