{
  "abi": [
    {
      "inputs": [],
      "name": "anchor",
      "outputs": [
        {
          "internalType": "address",
          "name": "",
          "type": "address"
        }
      ],
      "stateMutability": "view",
      "type": "function"
    },
    {
      "inputs": [
        {
          "internalType": "uint256",
          "name": "blockNumber",
          "type": "uint256"
        }
      ],
      "name": "dropAnchor",
      "outputs": [
        {
          "internalType": "address",
          "name": "addr",
          "type": "address"
        }
      ],
      "stateMutability": "nonpayable",
      "type": "function"
    },
    {
      "inputs": [],
      "name": "onOurWay",
      "outputs": [
        {
          "internalType": "bool",
          "name": "",
          "type": "bool"
        }
      ],
      "stateMutability": "view",
      "type": "function"
    },
    {
      "inputs": [],
      "name": "pullAnchor",
      "outputs": [],
      "stateMutability": "nonpayable",
      "type": "function"
    },
    {
      "inputs": [],
      "name": "sailAway",
      "outputs": [],
      "stateMutability": "nonpayable",
      "type": "function"
    }
  ],
  "bytecode": {
    "object": "0x6080604052600080546001600160a81b031916905534801561002057600080fd5b5061054c806100306000396000f3fe608060405234801561001057600080fd5b50600436106100575760003560e01c80639b25aaff1461005c578063a4a67aae14610085578063b084ffa11461008f578063d3fb73b414610097578063eef03274146100c2575b600080fd5b60005461007090600160a01b900460ff1681565b60405190151581526020015b60405180910390f35b61008d6100d5565b005b61008d61011a565b6000546100aa906001600160a01b031681565b6040516001600160a01b03909116815260200161007c565b6100aa6100d0366004610430565b61018f565b6000546001600160a01b03166100ea57600080fd5b6000546001600160a01b0316803b801561010357600080fd5b50506000805460ff60a01b1916600160a01b179055565b6000546001600160a01b031661012f57600080fd5b600080546040516001600160a01b03909116908281818181865af19150503d8060008114610179576040519150601f19603f3d011682016040523d82523d6000602084013e61017e565b606091505b505090508061018c57600080fd5b50565b600061019e43620186a061045f565b82116101a957600080fd5b6101b1610411565b616300815260208101839052604360408201526010606082015260586080820152605760a0820152603360c082015260ff60e082015260006101f2826102af565b90506101fd8161030e565b610205610411565b6000808252606a60208301526040820183905261600060608301526052608083015261600b60a083015261601560c083015260f360e0830152610247826102af565b9050600061025482610353565b9050600061026382602061048e565b9050604051838152828282016000f09750506001600160a01b03871661028857600080fd5b5050600080546001600160a01b0319166001600160a01b0387161790555092949350505050565b600060085b8015610308576102c382610353565b6102ce9060086104a1565b836102da60018461048e565b600881106102ea576102ea610478565b6020020151901b821891508080610300906104b8565b9150506102b4565b50919050565b61018c8160405160240161032491815260200190565b60408051601f198184030181529190526020810180516001600160e01b031663f5b1bba960e01b1790526103f0565b60408051602080825281830190925260009182919060208201818036833701905050905082602082015260005b81518163ffffffff1610156103e657818163ffffffff16815181106103a7576103a7610478565b01602001516001600160f81b031916156103d4576103c68160206104cf565b63ffffffff16949350505050565b806103de816104f3565b915050610380565b5060009392505050565b80516a636f6e736f6c652e6c6f67602083016000808483855afa5050505050565b6040518061010001604052806008906020820280368337509192915050565b60006020828403121561044257600080fd5b5035919050565b634e487b7160e01b600052601160045260246000fd5b8082018082111561047257610472610449565b92915050565b634e487b7160e01b600052603260045260246000fd5b8181038181111561047257610472610449565b808202811582820484141761047257610472610449565b6000816104c7576104c7610449565b506000190190565b63ffffffff8281168282160390808211156104ec576104ec610449565b5092915050565b600063ffffffff80831681810361050c5761050c610449565b600101939250505056fea2646970667358221220124b2744ef915092e8f90ef300cf914a61459e40516cb7a2b953dada7a8a2eb764736f6c63430008110033",
    "linkReferences": {}
  },
  "methodIdentifiers": {
    "anchor()": "d3fb73b4",
    "dropAnchor(uint256)": "eef03274",
    "onOurWay()": "9b25aaff",
    "pullAnchor()": "b084ffa1",
    "sailAway()": "a4a67aae"
  },
  "id": 14
}