{
  "abi": [
    {
      "inputs": [
        {
          "internalType": "uint256",
          "name": "",
          "type": "uint256"
        }
      ],
      "name": "games",
      "outputs": [
        {
          "internalType": "address",
          "name": "player",
          "type": "address"
        },
        {
          "internalType": "uint256",
          "name": "id",
          "type": "uint256"
        },
        {
          "internalType": "uint256",
          "name": "bet",
          "type": "uint256"
        },
        {
          "internalType": "uint256",
          "name": "blockNumber",
          "type": "uint256"
        }
      ],
      "stateMutability": "view",
      "type": "function"
    },
    {
      "inputs": [
        {
          "internalType": "uint256",
          "name": "_bet",
          "type": "uint256"
        }
      ],
      "name": "spin",
      "outputs": [],
      "stateMutability": "payable",
      "type": "function"
    },
    {
      "stateMutability": "payable",
      "type": "receive"
    }
  ],
  "bytecode": {
    "object": "0x608060405234801561001057600080fd5b5061031b806100206000396000f3fe60806040526004361061002d5760003560e01c8063117a5b9014610039578063a5b6ea8f1461009357610034565b3661003457005b600080fd5b34801561004557600080fd5b506100636004803603602081101561005c57600080fd5b50356100b2565b604080516001600160a01b0390951685526020850193909352838301919091526060830152519081900360800190f35b6100b0600480360360208110156100a957600080fd5b50356100f3565b005b600081815481106100bf57fe5b600091825260209091206004909102018054600182015460028301546003909301546001600160a01b039092169350919084565b662386f26fc1000034101561010757600080fd5b600080546040805160808101825233815260208101838152918101858152436060830190815260018501865594805290517f290decd9548b62a8d60345a988386fc84ba6bc95484008f6362f93160ef3e5636004850290810180546001600160a01b0319166001600160a01b039093169290921790915591517f290decd9548b62a8d60345a988386fc84ba6bc95484008f6362f93160ef3e564830155517f290decd9548b62a8d60345a988386fc84ba6bc95484008f6362f93160ef3e56582015591517f290decd9548b62a8d60345a988386fc84ba6bc95484008f6362f93160ef3e5669092019190915580156102ad576000600182039050600061022d6000838154811061021357fe5b9060005260206000209060040201600301544060646102b1565b90506000828154811061023c57fe5b9060005260206000209060040201600201548114156102aa576000828154811061026257fe5b600091825260208220600490910201546040516001600160a01b03909116914780156108fc02929091818181858888f193505050501580156102a8573d6000803e3d6000fd5b505b50505b5050565b60408051602080820185905282518083038201815291830190925280519101206000908290816102dd57fe5b06939250505056fea2646970667358221220fed4f23774c32bd096eaf613032263da7f61dcf7a0d764962056f2c155ff254264736f6c634300060c0033",
    "linkReferences": {}
  },
  "methodIdentifiers": {
    "games(uint256)": "117a5b90",
    "spin(uint256)": "a5b6ea8f"
  },
  "id": 1
}